{
  "contractName": "SocialNetwork",
  "abi": [
    {
      "inputs": [],
      "stateMutability": "nonpayable",
      "type": "constructor"
    },
    {
      "anonymous": false,
      "inputs": [
        {
          "indexed": false,
          "internalType": "uint256",
          "name": "id",
          "type": "uint256"
        },
        {
          "indexed": false,
          "internalType": "address payable",
          "name": "author",
          "type": "address"
        },
        {
          "indexed": false,
          "internalType": "string",
          "name": "content",
          "type": "string"
        },
        {
          "indexed": false,
          "internalType": "uint256",
          "name": "tipAmount",
          "type": "uint256"
        }
      ],
      "name": "PostCreated",
      "type": "event"
    },
    {
      "anonymous": false,
      "inputs": [
        {
          "indexed": false,
          "internalType": "uint256",
          "name": "id",
          "type": "uint256"
        },
        {
          "indexed": false,
          "internalType": "address payable",
          "name": "author",
          "type": "address"
        },
        {
          "indexed": false,
          "internalType": "string",
          "name": "content",
          "type": "string"
        },
        {
          "indexed": false,
          "internalType": "uint256",
          "name": "tipAmount",
          "type": "uint256"
        }
      ],
      "name": "PostTipped",
      "type": "event"
    },
    {
      "inputs": [],
      "name": "name",
      "outputs": [
        {
          "internalType": "string",
          "name": "",
          "type": "string"
        }
      ],
      "stateMutability": "view",
      "type": "function",
      "constant": true
    },
    {
      "inputs": [
        {
          "internalType": "uint256",
          "name": "",
          "type": "uint256"
        }
      ],
      "name": "posts",
      "outputs": [
        {
          "internalType": "uint256",
          "name": "id",
          "type": "uint256"
        },
        {
          "internalType": "address payable",
          "name": "author",
          "type": "address"
        },
        {
          "internalType": "string",
          "name": "content",
          "type": "string"
        },
        {
          "internalType": "uint256",
          "name": "tipAmount",
          "type": "uint256"
        }
      ],
      "stateMutability": "view",
      "type": "function",
      "constant": true
    },
    {
      "inputs": [],
      "name": "postsIdCounter",
      "outputs": [
        {
          "internalType": "uint256",
          "name": "_value",
          "type": "uint256"
        }
      ],
      "stateMutability": "view",
      "type": "function",
      "constant": true
    },
    {
      "inputs": [
        {
          "internalType": "string",
          "name": "_content",
          "type": "string"
        }
      ],
      "name": "createPost",
      "outputs": [],
      "stateMutability": "nonpayable",
      "type": "function"
    },
    {
      "inputs": [
        {
          "internalType": "uint256",
          "name": "_id",
          "type": "uint256"
        }
      ],
      "name": "tipPost",
      "outputs": [],
      "stateMutability": "payable",
      "type": "function",
      "payable": true
    }
  ],
  "bytecode": "0x60806040523480156200001157600080fd5b506040518060400160405280600e81526020017f536f6369616c204e6574776f726b000000000000000000000000000000000000815250600090805190602001906200005f92919062000066565b506200017b565b828054620000749062000145565b90600052602060002090601f016020900481019282620000985760008555620000e4565b82601f10620000b357805160ff1916838001178555620000e4565b82800160010185558215620000e4579182015b82811115620000e3578251825591602001919060010190620000c6565b5b509050620000f39190620000f7565b5090565b5b8082111562000112576000816000905550600101620000f8565b5090565b7f4e487b7100000000000000000000000000000000000000000000000000000000600052602260045260246000fd5b600060028204905060018216806200015e57607f821691505b6020821081141562000175576200017462000116565b5b50919050565b610dbb806200018b6000396000f3fe60806040526004361061004a5760003560e01c806306fdde031461004f5780630b1e7f831461007a578063548ea3ab146100ba57806374d3c1f8146100e5578063c7303c6114610101575b600080fd5b34801561005b57600080fd5b5061006461012a565b604051610071919061081c565b60405180910390f35b34801561008657600080fd5b506100a1600480360381019061009c9190610888565b6101b8565b6040516100b19493929190610905565b60405180910390f35b3480156100c657600080fd5b506100cf610290565b6040516100dc9190610951565b60405180910390f35b6100ff60048036038101906100fa9190610888565b61029c565b005b34801561010d57600080fd5b5061012860048036038101906101239190610aa1565b610558565b005b6000805461013790610b19565b80601f016020809104026020016040519081016040528092919081815260200182805461016390610b19565b80156101b05780601f10610185576101008083540402835291602001916101b0565b820191906000526020600020905b81548152906001019060200180831161019357829003601f168201915b505050505081565b60016020528060005260406000206000915090508060000154908060010160009054906101000a900473ffffffffffffffffffffffffffffffffffffffff169080600201805461020790610b19565b80601f016020809104026020016040519081016040528092919081815260200182805461023390610b19565b80156102805780601f1061025557610100808354040283529160200191610280565b820191906000526020600020905b81548152906001019060200180831161026357829003601f168201915b5050505050908060030154905084565b60028060000154905081565b6000811180156102b557506102b160026106bc565b8111155b6102f4576040517f08c379a00000000000000000000000000000000000000000000000000000000081526004016102eb90610bbd565b60405180910390fd5b600060016000838152602001908152602001600020604051806080016040529081600082015481526020016001820160009054906101000a900473ffffffffffffffffffffffffffffffffffffffff1673ffffffffffffffffffffffffffffffffffffffff1673ffffffffffffffffffffffffffffffffffffffff16815260200160028201805461038490610b19565b80601f01602080910402602001604051908101604052809291908181526020018280546103b090610b19565b80156103fd5780601f106103d2576101008083540402835291602001916103fd565b820191906000526020600020905b8154815290600101906020018083116103e057829003601f168201915b5050505050815260200160038201548152505090506000816020015190508073ffffffffffffffffffffffffffffffffffffffff166108fc349081150290604051600060405180830381858888f19350505050158015610461573d6000803e3d6000fd5b5034826060018181516104749190610c0c565b9150818152505081600160008581526020019081526020016000206000820151816000015560208201518160010160006101000a81548173ffffffffffffffffffffffffffffffffffffffff021916908373ffffffffffffffffffffffffffffffffffffffff16021790555060408201518160020190805190602001906104fc9291906106e0565b50606082015181600301559050507f0ea893dca2c603df1a06eeee20271ef166ecd0f59d578ffc1bac534b73f4ac4b8383602001518460400151856060015160405161054b9493929190610905565b60405180910390a1505050565b600081511161059c576040517f08c379a000000000000000000000000000000000000000000000000000000000815260040161059390610cd4565b60405180910390fd5b6105a660026106ca565b60006105b260026106bc565b905060405180608001604052808281526020013373ffffffffffffffffffffffffffffffffffffffff1681526020018381526020016000815250600160008381526020019081526020016000206000820151816000015560208201518160010160006101000a81548173ffffffffffffffffffffffffffffffffffffffff021916908373ffffffffffffffffffffffffffffffffffffffff160217905550604082015181600201908051906020019061066c9291906106e0565b50606082015181600301559050507f285db98a4632176385795ddf0d2b67cef1a21f47eb2f5d06f786ab6b5147e20081338460006040516106b09493929190610d39565b60405180910390a15050565b600081600001549050919050565b6001816000016000828254019250508190555050565b8280546106ec90610b19565b90600052602060002090601f01602090048101928261070e5760008555610755565b82601f1061072757805160ff1916838001178555610755565b82800160010185558215610755579182015b82811115610754578251825591602001919060010190610739565b5b5090506107629190610766565b5090565b5b8082111561077f576000816000905550600101610767565b5090565b600081519050919050565b600082825260208201905092915050565b60005b838110156107bd5780820151818401526020810190506107a2565b838111156107cc576000848401525b50505050565b6000601f19601f8301169050919050565b60006107ee82610783565b6107f8818561078e565b935061080881856020860161079f565b610811816107d2565b840191505092915050565b6000602082019050818103600083015261083681846107e3565b905092915050565b6000604051905090565b600080fd5b600080fd5b6000819050919050565b61086581610852565b811461087057600080fd5b50565b6000813590506108828161085c565b92915050565b60006020828403121561089e5761089d610848565b5b60006108ac84828501610873565b91505092915050565b6108be81610852565b82525050565b600073ffffffffffffffffffffffffffffffffffffffff82169050919050565b60006108ef826108c4565b9050919050565b6108ff816108e4565b82525050565b600060808201905061091a60008301876108b5565b61092760208301866108f6565b818103604083015261093981856107e3565b905061094860608301846108b5565b95945050505050565b600060208201905061096660008301846108b5565b92915050565b600080fd5b600080fd5b7f4e487b7100000000000000000000000000000000000000000000000000000000600052604160045260246000fd5b6109ae826107d2565b810181811067ffffffffffffffff821117156109cd576109cc610976565b5b80604052505050565b60006109e061083e565b90506109ec82826109a5565b919050565b600067ffffffffffffffff821115610a0c57610a0b610976565b5b610a15826107d2565b9050602081019050919050565b82818337600083830152505050565b6000610a44610a3f846109f1565b6109d6565b905082815260208101848484011115610a6057610a5f610971565b5b610a6b848285610a22565b509392505050565b600082601f830112610a8857610a8761096c565b5b8135610a98848260208601610a31565b91505092915050565b600060208284031215610ab757610ab6610848565b5b600082013567ffffffffffffffff811115610ad557610ad461084d565b5b610ae184828501610a73565b91505092915050565b7f4e487b7100000000000000000000000000000000000000000000000000000000600052602260045260246000fd5b60006002820490506001821680610b3157607f821691505b60208210811415610b4557610b44610aea565b5b50919050565b7f596f752063616e6e6f7420746970206120706f7374207468617420646f65732060008201527f6e6f742065786973742e00000000000000000000000000000000000000000000602082015250565b6000610ba7602a8361078e565b9150610bb282610b4b565b604082019050919050565b60006020820190508181036000830152610bd681610b9a565b9050919050565b7f4e487b7100000000000000000000000000000000000000000000000000000000600052601160045260246000fd5b6000610c1782610852565b9150610c2283610852565b9250827fffffffffffffffffffffffffffffffffffffffffffffffffffffffffffffffff03821115610c5757610c56610bdd565b5b828201905092915050565b7f54686520706f7374206d75737420636f6e7461696e20736f6d6520636f6e746560008201527f6e742e0000000000000000000000000000000000000000000000000000000000602082015250565b6000610cbe60238361078e565b9150610cc982610c62565b604082019050919050565b60006020820190508181036000830152610ced81610cb1565b9050919050565b6000819050919050565b6000819050919050565b6000610d23610d1e610d1984610cf4565b610cfe565b610852565b9050919050565b610d3381610d08565b82525050565b6000608082019050610d4e60008301876108b5565b610d5b60208301866108f6565b8181036040830152610d6d81856107e3565b9050610d7c6060830184610d2a565b9594505050505056fea2646970667358221220195f2c477a9cb64682f700d9b62af5648bd498b3b2ee63c094a74ee9d0743c5f64736f6c634300080a0033",
  "immutableReferences": {},
  "source": "// SPDX-License-Identifier: MIT\npragma solidity 0.8.10;\n\nimport \"@openzeppelin/contracts/utils/Counters.sol\";\nimport \"@openzeppelin/contracts/utils/math/SafeMath.sol\";\n\ncontract SocialNetwork {\n  using SafeMath for uint256;\n  using Counters for Counters.Counter;\n\n  string public name;\n\n  mapping (uint256 => Post) public posts;\n  Counters.Counter public postsIdCounter;\n\n  struct Post {\n    uint256 id;\n    address payable author;\n    string content;\n    uint256 tipAmount;\n  }\n\n  event PostCreated(\n    uint256 id,\n    address payable author,\n    string content,\n    uint256 tipAmount\n  );\n\n  event PostTipped(\n    uint256 id,\n    address payable author,\n    string content,\n    uint256 tipAmount\n  );\n\n  constructor() {\n    name = \"Social Network\";\n  }\n\n  function createPost(string memory _content) public {\n    require(bytes(_content).length > 0, \"The post must contain some content.\");\n\n    postsIdCounter.increment();\n    uint256 id = postsIdCounter.current();\n    posts[id] = Post(id, payable(msg.sender), _content, 0);\n    emit PostCreated(id, payable(msg.sender), _content, 0);\n  }\n\n  function tipPost(uint256 _id) public payable {\n    require(_id > 0 && _id <= postsIdCounter.current(), \"You cannot tip a post that does not exist.\");\n\n    Post memory post = posts[_id];\n    address payable author = post.author;\n    author.transfer(msg.value);\n    post.tipAmount += msg.value;\n    posts[_id] = post;\n    emit PostTipped(_id, post.author, post.content, post.tipAmount);\n  }\n}\n",
  "sourcePath": "/root/workspace/social-network-dapp/src/blockchain/contracts/SocialNetwork.sol",
  "compiler": {
    "name": "solc",
    "version": "0.8.10+commit.fc410830.Emscripten.clang"
  },
  "schemaVersion": "3.4.3",
  "updatedAt": "2021-11-29T09:56:46.122Z",
  "networkType": "ethereum",
  "devdoc": {
    "kind": "dev",
    "methods": {},
    "version": 1
  },
  "userdoc": {
    "kind": "user",
    "methods": {},
    "version": 1
  }
}